{
  "contractName": "Transfer",
  "abi": [
    {
      "inputs": [],
      "stateMutability": "nonpayable",
      "type": "constructor"
    },
    {
      "anonymous": false,
      "inputs": [
        {
          "indexed": false,
          "internalType": "address",
          "name": "_to",
          "type": "address"
        },
        {
          "indexed": false,
          "internalType": "address",
          "name": "_from",
          "type": "address"
        },
        {
          "indexed": false,
          "internalType": "uint256",
          "name": "amt",
          "type": "uint256"
        }
      ],
      "name": "Pay",
      "type": "event"
    },
    {
      "inputs": [
        {
          "internalType": "address payable",
          "name": "_to",
          "type": "address"
        }
      ],
      "name": "pay",
      "outputs": [
        {
          "internalType": "bool",
          "name": "",
          "type": "bool"
        }
      ],
      "stateMutability": "payable",
      "type": "function",
      "payable": true
    }
  ],
  "bytecode": "0x608060405234801561001057600080fd5b50336000806101000a81548173ffffffffffffffffffffffffffffffffffffffff021916908373ffffffffffffffffffffffffffffffffffffffff160217905550610330806100606000396000f3fe60806040526004361061001e5760003560e01c80630c11dedd14610023575b600080fd5b61003d600480360381019061003891906101e8565b610053565b60405161004a9190610230565b60405180910390f35b600081600160006101000a81548173ffffffffffffffffffffffffffffffffffffffff021916908373ffffffffffffffffffffffffffffffffffffffff160217905550600160009054906101000a900473ffffffffffffffffffffffffffffffffffffffff1673ffffffffffffffffffffffffffffffffffffffff166108fc349081150290604051600060405180830381858888f193505050501580156100fe573d6000803e3d6000fd5b507f288d9a5737d39d766acb848da277a970d9ee31f9115e17490b9393e282fa7b4d600160009054906101000a900473ffffffffffffffffffffffffffffffffffffffff1660008054906101000a900473ffffffffffffffffffffffffffffffffffffffff1634604051610174939291906102c3565b60405180910390a160019050919050565b600080fd5b600073ffffffffffffffffffffffffffffffffffffffff82169050919050565b60006101b58261018a565b9050919050565b6101c5816101aa565b81146101d057600080fd5b50565b6000813590506101e2816101bc565b92915050565b6000602082840312156101fe576101fd610185565b5b600061020c848285016101d3565b91505092915050565b60008115159050919050565b61022a81610215565b82525050565b60006020820190506102456000830184610221565b92915050565b6000819050919050565b600061027061026b6102668461018a565b61024b565b61018a565b9050919050565b600061028282610255565b9050919050565b600061029482610277565b9050919050565b6102a481610289565b82525050565b6000819050919050565b6102bd816102aa565b82525050565b60006060820190506102d8600083018661029b565b6102e5602083018561029b565b6102f260408301846102b4565b94935050505056fea26469706673582212208cacf6ab4a19488ddf621ab22855120aca94aae17a185f4cdd774d77777f58a864736f6c634300080c0033",
  "immutableReferences": {},
  "source": "// SPDX-License-Identifier: UNLICENSED\npragma solidity ^0.8.0;\n\ncontract Transfer {\n  address payable from;\n  address payable to;\n  \n  constructor() {\n    from = payable(msg.sender);\n  }\n  \n  event Pay(address _to, address _from, uint amt);\n\n  function pay( address payable _to ) public payable returns (bool) {\n    to = _to;\n    to.transfer(msg.value);\n    emit Pay(to, from, msg.value);\n    return true;\n  }\n}",
  "sourcePath": "/home/pi/src/lantube-mobile/truffle/contracts/Transfer.sol",
  "compiler": {
    "name": "solc",
    "version": "0.8.12+commit.f00d7308.Emscripten.clang"
  },
  "schemaVersion": "3.4.6",
  "updatedAt": "2022-04-09T13:48:57.184Z",
  "networkType": "ethereum",
  "devdoc": {
    "kind": "dev",
    "methods": {},
    "version": 1
  },
  "userdoc": {
    "kind": "user",
    "methods": {},
    "version": 1
  }
}